:100000000C9487010C94AF010C94AF010C94AF01D8
:100010000C94AF010C94AF010C94AF010C94AF01A0
:100020000C94AF010C94AF010C949C0A0C94AF019A
:100030000C94AF010C94AF010C94AF010C94AF0180
:100040000C94AF010C94AF010C94AF010C94AF0170
:100050000C94AF010C94AF010C94AF010C94520AB4
:100060000C94AF010C94AF010C94AF010C94AF0150
:100070000C94AF010C94AF010C94AF010C94AF0140
:100080000C94AF010C94AF010C94AF010C94AF0130
:100090000C94AF010C94AF010C94AF010C94AF0120
:1000A0000C94AF010C94AF010C94AF01120100024B
:1000B000FFFFFF405E048E021401010203010501EF
:1000C0000905A101150025013500450175019510AF
:1000D000050919012910810205012507463B017513
:1000E0000495016514093981426500950181012655
:1000F000FF0046FF000930093109320935750895BE
:100100000481020600FF0920950181020A2126953B
:10011000089102C012010002000000400D0F920081
:10012000000101020001080331002E003000000030
:10013000240350004F004B004B0045004E002000B0
:1001400043004F004E00540052004F004C004C0042
:100150004500520000003003580049006E00700056
:100160007500740020005300540041004E0044000C
:100170004100520044002000470041004D0045006E
:1001800050004100440000001C0348004F00520092
:100190004900200043004F002E002C004C0054006A
:1001A00044002E00000014034D006900630072003B
:1001B0006F0073006F006600740000000403090400
:1001C0000902290001010080FA090400000203006D
:1001D0000000092111010001225600070502034019
:1001E0000001070581034000010902990004010094
:1001F000A0FA0904000002FF5D01001121000101C5
:100200002581140000000013010800000705810388
:10021000200001070501032000080904010004FF74
:100220005D03001B210001010182400102201683B1
:100230000000000000001603000000000000070599
:100240008203200002070502032000040705830340
:10025000200040070503032000100904020001FFED
:100260005D020009210001012284070007058403C3
:100270002000100904030000FFFD130406410001E3
:10028000010300000000240027002A002D00300098
:10029000000000002300260029002C002F00000091
:1002A0000000250028002B002E0031000404040467
:1002B000040304050202020204030202020206060B
:1002C00006060606040402020204040408020110E1
:1002D000408040102040804080080204018040207F
:1002E0001002011080102040402000000002000990
:1002F0000F0000030401000C0000000000000000DB
:1003000000000000000000000000A616171C1124C9
:100310001FBECFEFDAE0DEBFCDBF11E0A0E0B1E05D
:10032000E8E5FBE302C005900D92A231B107D9F7D1
:1003300023E0A2E1B1E001C01D92AB3AB207E1F7C0
:1003400011E0C6E8D1E004C02197FE010E94511CD3
:10035000C538D107C9F70E94420C0C949F1D0C941C
:100360000000CF93DF93CDB7DEB729970FB6F8948F
:10037000DEBF0FBECDBF80919A0390919B03892B66
:1003800009F412C14091A0035091A1036091A2030E
:100390007091A30335C03FB7F89480918D0390917D
:1003A0008E03A0918F03B091900326B5A89B05C042
:1003B0002F3F19F00196A11DB11D3FBF4091A00331
:1003C0005091A1036091A2037091A303BA2FA92FAA
:1003D000982F8827820F911DA11DB11D880F991F8D
:1003E000AA1FBB1F880F991FAA1FBB1F841B950B39
:1003F000A60BB70B8C329140A105B10508F055C092
:100400003FB7F89480918D0390918E03A0918F0354
:10041000B091900326B5A89B05C02F3F19F0019617
:10042000A11DB11D3FBFBA2FA92F982F8827820F7A
:10043000911DA11DB11D880F991FAA1FBB1F880FF9
:10044000991FAA1FBB1F84179507A607B70708F0B7
:10045000A2CF3FB7F89480918D0390918E03A09125
:100460008F03B091900326B5A89B05C02F3F19F0CC
:100470000196A11DB11D3FBFBA2FA92F982F882724
:10048000820F911DA11DB11D880F991FAA1FBB1FAF
:10049000880F991FAA1FBB1F8093A0039093A103ED
:1004A000A093A203B093A30376CFF8948091950311
:1004B000909196039A838983E0919A03F0919B032C
:1004C000DF0111968081898780919103E091A403D7
:1004D000F091A5039081811170C08091A603982BA3
:1004E00098879081809589238F838F818E8388E080
:1004F0008D8358856F8149853D812E8189819A81BF
:10050000508347FD252F00C000C0208300C000C0DD
:1005100000C000C000C060830000262F3A9541F063
:10052000441F000000C000C000C000C000C0E8CFF1
:1005300038E04D9100C0608300C0019709F7F09347
:10054000A503E093A40349873D832E839A8389837F
:1005500078943FB7F89480918D0390918E03A09189
:100560008F03B091900326B5A89B05C02F3F19F0CB
:100570000196A11DB11D3FBFBA2FA92F982F882723
:10058000820F911DA11DB11D880F991FAA1FBB1FAE
:10059000880F991FAA1FBB1F8093A0039093A103EC
:1005A000A093A203B093A30329960FB6F894DEBFDD
:1005B0000FBECDBFDF91CF9108958091A603982BF8
:1005C00098879081809589238F838F818C8388E0A1
:1005D0008B8358856F8149853B812C8189819A81E4
:1005E000508347FD252F3A952083262F39F0441F4D
:1005F00000C000006083000000C0F2CF38E04D91E1
:1006000060830000019761F7F093A503E093A403D2
:1006100049873B832C839A8389839ACF4F925F9239
:100620006F927F92AF92BF92CF92DF92EF92FF9242
:100630000F931F93CF93DF932091930330919403F3
:100640008217930708F051C02B0166247724B42D3C
:10065000C52ED62EE72EFF24BC2CA42EE0919903A4
:1006600030919F0320919C0300919A0310919B036A
:10067000EE2309F449C0CE2FD0E04E9E2001112474
:10068000B52DEC9D60011124BD2CE49FF0011124D7
:10069000AF2E321709F442C0880F991F880F991F97
:1006A000800F911FC72EDD24EE24FF24CC9DB001C6
:1006B000CD9D700DDC9D700D1124272FFC01E30FE3
:1006C000F11D208320919C03280F392F311DF90142
:1006D000B083E0919D03E80FF92FF11DB0822091C6
:1006E0009E03820F911DFC01A082DF91CF911F918B
:1006F0000F91FF90EF90DF90CF90BF90AF907F90E1
:100700006F905F904F900895321741F0880F991FB6
:10071000880F991F800F911F272FD0CFAC01440F56
:10072000551F840F951F800F911FCECF81508F30A2
:10073000D0F4E82FF0E0E156FC4F0C94511CB403C8
:10074000B803BC03C203C803B303B303B303CE03AC
:10075000D403DA03E003E603B303AE038091C200DF
:10076000877F8093C200089584B58F7784BD0895F4
:1007700084B58F7D84BD0895809180008F778093AC
:1007800080000895809180008F7D8093800008957F
:1007900080918000877F80938000089580919000F1
:1007A0008F77809390000895809190008F7D809343
:1007B0009000089580919000877F80939000089525
:1007C0008091C0008F778093C00008958091C00011
:1007D0008F7D8093C0000895CF93DF93282F30E062
:1007E000F901E651FD4F8491F901E553FD4FD49194
:1007F000F901E455FD4FC491CC2391F0811113C050
:10080000EC2FF0E0EE0FFF1FE256FD4FA591B491E3
:100810008FB7F8949C91ED2FE095E923EC938FBF6F
:10082000DF91CF9108950E949603EACFCF93DF9393
:10083000282F30E0F901E651FD4F8491F901E5538D
:10084000FD4FD491F901E455FD4FC491CC23A1F0A3
:10085000811115C0EC2FF0E0EE0FFF1FE057FD4FA8
:10086000A591B491EC91ED2381E090E019F0DF9136
:10087000CF91089580E0FBCF80E090E0F8CF0E9418
:100880009603E8CFCF93DF9390E0FC01E553FD4F53
:10089000249184559D4FFC0184918823A9F090E018
:1008A000880F991FFC01EE57FD4FA591B491FC01F3
:1008B000E256FD4FC591D491662349F08FB7F89465
:1008C000EC91E22BEC938FBFDF91CF9108959FB70E
:1008D000F8948C91E22FE0958E238C932881E2236B
:1008E000E8839FBFF1CFFB0183B1808386B1818311
:1008F00089B182838CB183838FB18483089584B15D
:100900008F7084B93F988AB18C728AB96E9880B31F
:100910008C7080BB85B1806F85B9479A8BB1836D30
:100920008BB9769A81B3836F81BB0895FC012091C6
:100930001801309119016217730708F49B0140E018
:100940002115310521F512C090915E03992319F10B
:10095000953099F19091E80093FD31C09091E800B5
:1009600092FD25C09091E80090FD4DC04111ECCF63
:100970001EC0953011F19091E80093FD20C0909138
:10098000E80092FD14C09091E80090FD1AC090918B
:100990005E039111EECF82E0089580915E0388237B
:1009A000D1F3853051F08091E80083FD08C080913B
:1009B000E80082FFF2CF80E0089583E0089581E0AF
:1009C00008956091F3008091F200762F682F6034D3
:1009D000710520F00DC06034710551F08191809354
:1009E000F100215031096F5F7F4F2115310599F7D3
:1009F00041E06034710509F040E08091E8008E77B5
:100A00008093E8009DCF6091F3008091F200762FF3
:100A1000682FEECFCF93DF93CDB7DEB7AA970FB68F
:100A2000F894DEBF0FBECDBF9091F10090931201FC
:100A30008091F100809313012091F1002093140123
:100A40002091F100209315012091F10020931601CF
:100A50002091F100209317012091F10020931801BB
:100A60002091F1002093190120915F03222379F155
:100A7000813069F5913AD9F02091E80023FD41C019
:100A80008091E80083FF0AC08091E800877F80930F
:100A9000E8008091EB0080628093EB00AA960FB68D
:100AA000F894DEBF0FBECDBFDF91CF910895809146
:100AB000E800877F8093E80064E170E08AE493E0D7
:100AC0000E9496048091E8008B778093E8008091E3
:100AD000E80083FFD5CF90911201809113018A30F5
:100AE00078F6E82FF0E0E958FA4F0C94511CCD0548
:100AF00081054005810540053008E5074005C5072B
:100B0000FF05992309F4FBC2923009F0B9CF809117
:100B10001401811127C0809116018F709FEF980FEB
:100B2000963008F0ADCF8093E9009091EB0090FFF4
:100B300019C090911301933009F46BC49091EB00AC
:100B400090619093EB0021E030E001C0220F8A9584
:100B5000EAF72093EA001092EA008091EB008860A7
:100B60008093EB001092E9008091E800877F8093EA
:100B7000E8008091120187FF06C0A9C280915E0340
:100B8000882309F47DCF8091E80080FFF7CF809122
:100B9000E8008E778093E80073CF903809F405C39E
:100BA000923809F06DCF809116018F70873008F070
:100BB00067CF8093E9008091EB0085FB882780F95F
:100BC0001092E9009091E800977F9093E80080935D
:100BD000F1001092F1008091E8008E778093E80098
:100BE0008091120187FF06C09BC280915E0388231B
:100BF00009F446CF8091E80080FFF7CFC8CF91116C
:100C00003FCF80911401823008F03ACF2091E80064
:100C1000277F2093E80080933E032091120127FF55
:100C200005C092C220915E03222359F02091E80072
:100C300020FFF8CF8091E8008E778093E8008091C4
:100C40003E03882309F490C384E080935E0380917F
:100C50005F038111FBC282E08093E9008091EB0089
:100C60008E7F8093EB008091ED008D7F8093ED006F
:100C70008091EB0081608093EB0080EC8093EC002E
:100C800082E38093ED001092F0008091EE0087FFE8
:100C900093C083E08093E9004091EC002091ED0047
:100CA0003091F00021FF19C08091EB008E7F80937E
:100CB000EB008091ED008D7F8093ED008091EB0043
:100CC00081608093EB004093EC002093ED00309323
:100CD000F0008091EE0087FF6FC084E08093E90010
:100CE0004091EC002091ED003091F00021FF19C0FF
:100CF0008091EB008E7F8093EB008091ED008D7FE3
:100D00008093ED008091EB0081608093EB00409335
:100D1000EC002093ED003093F0008091EE0087FF0F
:100D20004BC085E08093E9004091EC002091ED00FC
:100D30003091F00021FF19C08091EB008E7F8093ED
:100D4000EB008091ED008D7F8093ED008091EB00B2
:100D500081608093EB004093EC002093ED00309392
:100D6000F0008091EE0087FF27C086E08093E900C5
:100D70004091EC002091ED003091F00021FF19C06E
:100D80008091EB008E7F8093EB008091ED008D7F52
:100D90008093ED008091EB0081608093EB004093A5
:100DA000EC002093ED003093F0008091EE0087FF7F
:100DB00003C082E08093E90080915F0344E150E04A
:100DC000811102C040E450E028E030E09F5F220F34
:100DD000331F24173507D0F3892F8295807F8260D7
:100DE00091E09093E9009091EB009E7F9093EB004F
:100DF0009091ED009D7F9093ED009091EB009160BC
:100E00009093EB0091EC9093EC008093ED001092A6
:100E1000F0008091EE0087FF33CE82E08093E900FE
:100E20003091EC009091ED002091F00091FF19C0FD
:100E30008091EB008E7F8093EB008091ED008D7FA1
:100E40008093ED008091EB0081608093EB00309304
:100E5000EC009093ED002093F0008091EE0087FF6E
:100E60000FCE83E08093E9003091EC009091ED008B
:100E70002091F00091FF19C08091EB008E7F80934C
:100E8000EB008091ED008D7F8093ED008091EB0071
:100E900081608093EB003093EC009093ED00209301
:100EA000F0008091EE0087FFEBCD84E08093E900B5
:100EB0003091EC009091ED002091F00091FF19C06D
:100EC0008091EB008E7F8093EB008091ED008D7F11
:100ED0008093ED008091EB0081608093EB00309374
:100EE000EC009093ED002093F0008091EE0087FFDE
:100EF000C7CD85E08093E9003091EC009091ED0042
:100F00002091F00091FF19C08091EB008E7F8093BB
:100F1000EB008091ED008D7F8093ED008091EB00E0
:100F200081608093EB003093EC009093ED00209370
:100F3000F0008091EE0087FFA3CD86E08093E9006A
:100F40003091EC009091ED002091F00091FF19C0DC
:100F50008091EB008E7F8093EB008091ED008D7F80
:100F60008093ED008091EB0081608093EB003093E3
:100F7000EC009093ED002093F0008091EE0087FF4D
:100F80007FCD81E08093E9007BCD903809F078CD6A
:100F90008091E800877F8093E80080913E038093F2
:100FA000F1008091E8008E778093E8008091120133
:100FB00087FF06C0BFC080915E03882309F460CD1F
:100FC0008091E80080FFF7CFE2CD9058923008F092
:100FD00057CD80911401909115018C3D23E092072B
:100FE00009F4ECC0292F33272330310509F4C9C196
:100FF00008F41BC12132310509F4BEC1223231058A
:1010000009F03ECD86E590E0EEEBF0E02091E800BF
:10101000277F2093E8002091180130911901821751
:10102000930708F49C0140E02115310509F0A7C0A1
:1010300014C080915E03882309F44DC0853009F403
:101040004AC08091E80083FD46C08091E80082FD9F
:10105000A7C08091E80080FDFCC14111EACFA0C08B
:1010600091110ECD909114019F778091E3008078CB
:10107000892B8093E3008091E800877F8093E800CC
:101080008091120187FF05C030C080915E038823E4
:1010900049F08091E80080FFF8CF8091E8008E77DA
:1010A0008093E8008091E80080FFFCCF8091E3000E
:1010B00080688093E30083E0911101C082E0809317
:1010C0005E03DECC80915E03882309F4D9CC809145
:1010D000E80082FFF7CF8091E8008B778093E800EB
:1010E000CFCC80915E038823E9F28091E80082FFF3
:1010F000F8CF8091E8008B778093E800D3CF909170
:101100001401913009F0BCCC91E0833009F090E0FB
:1011100090933D0327CD80915E03882309F4B0CCE2
:101120008091E80082FFF7CFD6CF80915E038823BD
:1011300009F4A6CC8091E80082FFF7CFCCCF2091B4
:101140005E03222309F47DCD2091E80022FFF7CF32
:101150008091E8008B778093E80080913E0371CD09
:10116000853009F4B8CF8091E80083FDB4CF809139
:10117000E80082FD15C08091E80080FD28C18091C3
:101180005E038111EDCFA7CF80915E03882309F420
:10119000A2CF853009F49FCF8091E80083FD9BCFDB
:1011A0008091E80082FFF0CF96CF80913C03909130
:1011B0003D03992309F406CD826004CD83E08A8340
:1011C0008AE289835FB7F894DE01139680E09EE09F
:1011D00041E207C0295C3F4F2D933D938F5F8431DF
:1011E00091F0E92FF0E040935700E49180FF03C0B5
:1011F000E295EF709F5FEF702E2F30E0EA3050F7EE
:10120000205D3F4FE9CF5FBF8091E800877F8093EB
:10121000E8006AE270E0CE0101960E949604809197
:10122000E8008B778093E8002BCC2130310509F45E
:10123000BEC02230310509F023CC80913B038111DF
:10124000C1C089E290E0E0ECF1E0E0CE83E0809381
:10125000E9008091EB008E7F8093EB008091ED00A0
:101260008D7F8093ED008091EB0081608093EB0097
:1012700081EC8093EC0082E28093ED001092F0000C
:101280008091EE0087FF98CD84E08093E900409143
:10129000EC002091ED003091F00021FF19C0809109
:1012A000EB008E7F8093EB008091ED008D7F80932B
:1012B000ED008091EB0081608093EB004093EC00A7
:1012C0002093ED003093F0008091EE0087FF74CD05
:1012D00085E08093E9004091EC002091ED00309191
:1012E000F00021FF19C08091EB008E7F8093EB000E
:1012F0008091ED008D7F8093ED008091EB00816007
:101300008093EB004093EC002093ED003093F000CD
:101310008091EE0087FF50CD86E08093E9004091F8
:10132000EC002091ED003091F00021FF19C0809178
:10133000EB008E7F8093EB008091ED008D7F80939A
:10134000ED008091EB0081608093EB004093EC0016
:101350002093ED003093F0008091EE0087FF2CCDBC
:1013600083E08093E90028CD8091E30087FD28C0C9
:1013700081E080935E036BCC89E090E0E2EDF1E0E8
:1013800045CE99278130910509F453C008F44CC02B
:101390008230910509F455C0039709F071CBE6E25C
:1013A000F1E0849190E0009709F46ACB2FCE809110
:1013B0003B03811134C082E190E0E4E1F1E026CE0C
:1013C00084E0D7CF89E990E0E9EEF1E01FCE80918B
:1013D000F3009091F200892798278927803491059E
:1013E00068F444914093F1003196215031090196FF
:1013F0002115310519F08034910599F741E08034C9
:10140000910509F040E08091E8008E778093E80034
:101410000BCE8091EB0080628093EB00A3CB82E146
:1014200090E0ECEAF0E0F2CDECEBF1E0849190E0BA
:10143000BACF80913B038823A1F0E6EAF1E08491E2
:10144000B1CF80913B03882381F0E6E5F1E0849100
:10145000A9CF8091F3009091F200892798278927DE
:10146000CDCFE8E8F1E084919DCFE0E3F1E0849115
:1014700099CFFF920F931F93CF93DF93EC01F62E3A
:1014800008811981C8010E94271CF81621F06F2DD0
:10149000C8010E942F1CCE01DF91CF911F910F91A7
:1014A000FF9008951F920F920FB60F9211242F9361
:1014B0003F938F939F93AF93BF9380911B01909124
:1014C0001C01A0911D01B0911E0130911A0123E071
:1014D000230F2D3768F126E8230F0296A11DB11DB9
:1014E00020931A0180931B0190931C01A0931D016E
:1014F000B0931E0180918D0390918E03A0918F0374
:10150000B09190030196A11DB11D80938D0390931E
:101510008E03A0938F03B0939003BF91AF919F91DF
:101520008F913F912F910F900FBE0F901F901895A4
:101530000196A11DB11DD4CF1F920F920FB60F922D
:1015400011242F933F938F939F938091E10082FF0B
:1015500004C08091E20082FD85C18091DA0080FFA5
:1015600004C08091D80080FD55C18091E10080FFCA
:1015700004C08091E20080FD61C18091E10084FFA0
:101580002AC08091E20084FF26C080E189BD82E10B
:1015900089BD09B400FEFDCF8091D8008F7D809376
:1015A000D8008091E1008F7E8093E1008091E2007D
:1015B0008F7E8093E2008091E20081608093E20060
:1015C00080913E03811154C18091E30087FD58C191
:1015D00081E080935E038091E10083FF12C18091DE
:1015E000E20083FF0EC18091E100877F8093E100DC
:1015F00082E080935E0310923E038091E1008E7F33
:101600008093E1008091E2008E7F8093E2008091E0
:10161000E20080618093E2001092E9008091EB008B
:101620008E7F8093EB008091ED008D7F8093ED00A5
:101630008091EB0081608093EB001092EC0082E3DC
:101640008093ED001092F0008091EE0087FFD9C0EA
:1016500081E08093E9003091EC008091ED002091D1
:10166000F00081FF19C09091EB009E7F9093EB00FA
:101670009091ED009D7F9093ED009091EB00916033
:101680009093EB003093EC008093ED002093F000FA
:101690008091EE0087FFB5C082E08093E900309131
:1016A000EC009091ED002091F00091FF19C0809125
:1016B000EB008E7F8093EB008091ED008D7F809317
:1016C000ED008091EB0081608093EB003093EC00A3
:1016D0009093ED002093F0008091EE0087FF91C081
:1016E00083E08093E9003091EC008091ED0020913F
:1016F000F00081FF19C09091EB009E7F9093EB006A
:101700009091ED009D7F9093ED009091EB009160A2
:101710009093EB003093EC008093ED002093F00069
:101720008091EE0087FF6DC084E08093E9003091E6
:10173000EC009091ED002091F00091FF19C0809194
:10174000EB008E7F8093EB008091ED008D7F809386
:10175000ED008091EB0081608093EB003093EC0012
:101760009093ED002093F0008091EE0087FF49C038
:1017700085E08093E9003091EC009091ED0020919C
:10178000F00091FF19C08091EB008E7F8093EB00F9
:101790008091ED008D7F8093ED008091EB00816062
:1017A0008093EB003093EC009093ED002093F000D9
:1017B0008091EE0087FF25C086E08093E90030919C
:1017C000EC008091ED002091F00081FF18C0909115
:1017D000EB009E7F9093EB009091ED009D7F9093A6
:1017E000ED009091EB0091609093EB003093EC0052
:1017F0008093ED002093F0008091EE0087FD109221
:10180000E9009F918F913F912F910F900FBE0F9004
:101810001F9018958091DA008E7F8093DA00809176
:10182000D90080FF29C080E189BD82E189BD09B46A
:1018300000FEFDCF81E080935E0397CE8091E200B1
:101840008E7F8093E2008091E20080618093E200CD
:101850008091D80080628093D80019BC85E0809385
:101860005E038BCE8091E1008B7F8093E10075CE8B
:1018700084E080935E03AFCE19BC10925E0375CEF8
:1018800083E0A7CECF93DF93CDB7DEB729970FB60E
:10189000F894DEBF0FBECDBF789484B5826084BD5E
:1018A00084B5816084BD85B5826085BD85B5816064
:1018B00085BD80916E00816080936E0010928100E2
:1018C000809181008260809381008091810081609D
:1018D000809381008091800081608093800080915E
:1018E000910082608093910080919100816080934B
:1018F0009100809190008160809390008091C10060
:1019000084608093C1008091C10082608093C10097
:101910008091C10081608093C1008091C30081608B
:101920008093C3008091C00082608093C00080914A
:10193000C20081608093C20080917A0084608093AD
:101940007A0080917A00826080937A0080917A0098
:10195000816080937A0080917A00806880937A0019
:1019600090E080E00E94271C8093020181E090E0DB
:101970000E94271C8093600382E090E00E94271C55
:101980008093610383E090E00E94271C80934003D2
:1019900084E090E00E94271C8093410380E091E066
:1019A0000E947F043FB7F89480918D0390918E033D
:1019B000A0918F03B091900326B5A89B05C02F3F3F
:1019C00019F00196A11DB11D3FBFBA2FA92F982F65
:1019D0008827820F911DA11DB11D880F991FAA1F75
:1019E000BB1F880F991FAA1FBB1F04EF11E020E047
:1019F00030E0FFB7F89440918D0350918E036091D1
:101A00008F0370919003E6B5A89B06C0EF3F21F0CD
:101A10004F5F5F4F6F4F7F4FFFBF762F652F542F64
:101A200044274E0F511D611D711D440F551F661F28
:101A3000771F440F551F661F771F481B590B6A0BF2
:101A40007B0B483E53406105710598F20150110926
:101A50002109310988519C4FAF4FBF4F0115110526
:101A60002105310531F686E00E9416048C0186E1DD
:101A70000E941604012B09F087C0892B11F00C94E9
:101A80005E15AE014F5F5F4F59874887809197037E
:101A90009091980397FD07C061E00E9442048091F5
:101AA00097030E94EC0381E0809392036091990375
:101AB000613849F120919A0330919B03615011F4F0
:101AC0000C94BD1570E08FEF90E80E943D1C809152
:101AD000950390919603892B99F0F9014081469FD7
:101AE000C001479F900D112490833196CF01821B36
:101AF000930B40919503509196038417950770F3CB
:101B000081E880939903809140039091410389304B
:101B100008F44BC080910201882311F40C941A162A
:101B200081E090E0909341038093400387E10E941D
:101B30001604892B11F00C94D71583E090E09A835A
:101B4000898360E0888599850E94390A84E090E065
:101B50009A83898360E0888599850E94390AE0919B
:101B60004003F09141033197E930F105A8F5E554C0
:101B7000F24F0C94511CD90D451658162F16AA1564
:101B8000951580156B15C115892B09F07ACF81E069
:101B9000809302011A82198261E0FE013196F98771
:101BA000E887CF010E94390A71CF892B09F0BECF97
:101BB000B1CF0FEF12E0F80141815281638174814E
:101BC000808190E00E940E030B5F1F4FF3E00B3308
:101BD0001F0789F70E94B1018091020180935F0382
:101BE00080933B0384B7877F84BF0FB6F894A89592
:101BF00080916000886180936000109260000FBE49
:101C000080E830E020E00FB6F894809361002093E4
:101C100061000FBE8091D8008F7E8093D8008091A4
:101C2000D70081608093D70084E082BF91E09093D9
:101C30003F038091D8008E7F8093D8001092E200FD
:101C40001092DA001092E1008091D8008F77809393
:101C5000D8008091D80080688093D8008091D80007
:101C60008F7D8093D80019BC10925E0310923E03C2
:101C700010923D0310923C038091E0008B7F809393
:101C8000E0008091D80081608093D8001092E90034
:101C90008091EB008E7F8093EB008091ED008D7F33
:101CA0008093ED008091EB0081608093EB001092B7
:101CB000EC0082E38093ED001092F0008091EE0042
:101CC00087FFD8C09093E9003091EC009091ED002F
:101CD0002091F00091FF19C08091EB008E7F8093DE
:101CE000EB008091ED008D7F8093ED008091EB0003
:101CF00081608093EB003093EC009093ED00209393
:101D0000F0008091EE0087FFB5C082E08093E9008B
:101D10003091EC009091ED002091F00091FF19C0FE
:101D20008091EB008E7F8093EB008091ED008D7FA2
:101D30008093ED008091EB0081608093EB00309305
:101D4000EC009093ED002093F0008091EE0087FF6F
:101D500091C083E08093E9003091EC009091ED0018
:101D60002091F00091FF19C08091EB008E7F80934D
:101D7000EB008091ED008D7F8093ED008091EB0072
:101D800081608093EB003093EC009093ED00209302
:101D9000F0008091EE0087FF6DC084E08093E90041
:101DA0003091EC009091ED002091F00091FF19C06E
:101DB0008091EB008E7F8093EB008091ED008D7F12
:101DC0008093ED008091EB0081608093EB00309375
:101DD000EC009093ED002093F0008091EE0087FFDF
:101DE00049C085E08093E9003091EC009091ED00CE
:101DF0002091F00091FF19C08091EB008E7F8093BD
:101E0000EB008091ED008D7F8093ED008091EB00E1
:101E100081608093EB003093EC009093ED00209371
:101E2000F0008091EE0087FF25C086E08093E900F6
:101E30003091EC009091ED002091F00091FF18C0DE
:101E40008091EB008E7F8093EB008091ED008D7F81
:101E50008093ED008091EB0081608093EB003093E4
:101E6000EC009093ED002093F0008091EE0087FD50
:101E70001092E9008091E1008E7F8093E1008091D3
:101E8000E20081608093E2008091E20088608093AC
:101E9000E2008091E0008E7F8093E0008091D80086
:101EA00080618093D800789480E0282E80E0382EDE
:101EB00006C120E8209370032093710310926203FF
:101EC000109263031092640310926503CD2809F009
:101ED0001CC410927303511093C46110C6C42093A4
:101EE00072036FEF7FE7E0E8F0E04FE75FEF20E895
:101EF00030E0911190C298E0909344039091700368
:101F000090934503909171039093460390917203CF
:101F100090934703909173039093480390916603C5
:101F2000992349F020914203309143032460309378
:101F300043032093420390916703992349F0209132
:101F400042033091430322603093430320934203C2
:101F500090916803992349F0209142033091430303
:101F6000286030934303209342039091690399239F
:101F700049F02091420330914303216030934303A1
:101F80002093420390916A03992349F020914203E0
:101F90003091430320613093430320934203909197
:101FA0006B03992349F0209142033091430320624F
:101FB000309343032093420390916C03992349F09B
:101FC00020914203309143032064309343032093D4
:101FD000420390916D03992349F02091420330917F
:101FE00043032068309343032093420390916E0390
:101FF000992349F02091420330914303326030939A
:10200000430320934203882349F080914203909137
:10201000430391609093430380934203809176033E
:10202000882349F0809142039091430390619093FB
:1020300043038093420380917403882349F0809185
:10204000420390914303946090934303809342032F
:1020500080917503882349F0809142039091430356
:102060009860909343038093420380917703882381
:1020700049F080914203909143039062909343030F
:102080008093420380915E03843009F482C380917F
:102090005E03882381F01091E9001F708091EC00AD
:1020A00080FD10681092E9008091E80083FD2AC34A
:1020B0001F701093E9002114310409F048C383B163
:1020C00046B159B19CB16FB1D0907C03C0907D03F3
:1020D00090907E0380907F03B0908003A090810356
:1020E000F0908203E09083031091840300918503B4
:1020F000A0918A0370918B03B0918C03252F30E05F
:10210000F901F595E795E170E0937F03E81529F073
:10211000F1E0E111F0E0F0936903517050937E0318
:10212000951629F0E1E05111E0E0E093680396FB99
:10213000992790F990938103A91629F051E0911104
:1021400050E050936B0390E0FC01F595E795F59511
:10215000E795F595E795F595E795F595E795E170A0
:10216000E0938003EB1529F051E0E11150E050932A
:102170006A03FC010E2EEF2F000CEE1FFF0B000C6C
:10218000EE1FFF1FE170E0937D03EC1529F051E095
:10219000E11150E050936703FC01EE0FEF2FEE1FAB
:1021A000FF0B5E2FE0937C03ED1529F0E1E0511168
:1021B000E0E0E0936603F9010E2EEF2F000CEE1F16
:1021C000FF0B000CEE1FFF1FE170E0938303EE1581
:1021D00029F051E0E11150E050936D0350E0440FBD
:1021E000452F441F550B542F409382034F1529F060
:1021F00041E0511140E040936C03A901440F452F89
:10220000441F550B542F40938503401729F041E09C
:10221000511140E040936F03862E912CF401F59507
:10222000E795E170E0938403F0916E031E1729F0A7
:10223000F1E0E111F0E0F0936E03959587959595A7
:1022400087959595879595958795817080938C0353
:102250008B1729F091E0811190E090937603C901EA
:102260009595879595958795959587959595879556
:10227000817080938A038A1729F091E0811190E0A0
:1022800090937403617060938B03671729F091E05A
:10229000611190E09093750384011595079515954C
:1022A00007951595079515950795680121E0C222B8
:1022B000DD2474010E2CEF2C000CEE1CFF08000C2A
:1022C000EE1CFF1CC70180959095482F4170742E1D
:1022D000C40195958795959587959595879595953D
:1022E0008795959587955C0151E0A522BB24809543
:1022F0009095682F6170662E880C892C881C99082F
:10230000C40171E08727E82FE1705E2E80916F0392
:10231000FF2349F1882339F1A114B10409F025C242
:1023200081E090E0909361038093600344244394A0
:1023300081E090E00E94271C841509F428C2642DD6
:1023400081E090E00E942F1C4090610382E090E0C9
:102350000E94271C841529F0642D82E090E00E94E1
:102360002F1C80916F03E02AE0FECAC1AB2821F444
:10237000892811F4512C612C90915F032091600306
:10238000309161032130310509F469C122303105F2
:1023900009F48FCD20E820937003209371032093DC
:1023A0007203209373030095109501701127202F5D
:1023B00000936203172D70926303B62D609264033D
:1023C000A52D50926503992309F4C4C1222309F471
:1023D00065C190914C03916090934C036FE77FEF40
:1023E000E0E8F0E04FE75FEF20E830E0112329F06C
:1023F00090914C03926090934C03BB2329F09091F1
:102400004C03946090934C03AA2329F090914C03C1
:10241000986090934C033093510320935003509352
:10242000530340935203F0935503E0935403709386
:1024300057036093560390916E03992329F090916E
:102440004C03906190934C03882329F080914C03B6
:10245000806280934C0380917403882329F08091DB
:102460004C03806480934C0380917503882329F08A
:1024700080914C03806880934C038091660388238D
:1024800029F080914D03806280934D038091670312
:10249000882329F080914D03806180934D038091C2
:1024A0006803882329F080914D03806880934D0351
:1024B00080916903882329F080914D038064809383
:1024C0004D0380916A03882329F080914D03816038
:1024D00080934D0380916B03882329F080914D03F5
:1024E000826080934D0380917603882329F0809148
:1024F0004D03846080934D0380916C03882319F011
:102500008FEF80934E0380916D03882319F08FEF36
:1025100080934F0380915E03843009F0B8CD84E14D
:10252000A82EB12C9AE4C92E93E0D92EF1E0F093B5
:10253000E9008091E80080FFAACD4091E40050912D
:10254000E50025E68091EC0080FF2CC08091E8003A
:1025500080FD2CC080915E03882381F0853071F06E
:102560008091EB0085FD0AC08091E4009091E50028
:102570008417950739F32150AC0121F78091E800C9
:102580008E778093E800A50170E060E0C6010E94AC
:10259000981D80915F03882309F479CD84E1F601C9
:1025A000818375CD8091E80082FFD4CF85017601CB
:1025B00008C0F70181917F018093F100015011095A
:1025C000E9F28091E80085FDF4CF8091E8008E77F4
:1025D0008093E80080915E038823A1F08091E90058
:1025E0008F70982E8091EC0080FF02C0689497F85D
:1025F0001092E9008091E80083FD76C1892D8F70EB
:102600008093E9004091E4005091E50025E6809137
:10261000EC0080FF1FC08091E80080FDD2CF809148
:102620005E03882309F4AACF853009F4A7CF8091EF
:10263000EB0085FDA3CF8091E4009091E500841725
:10264000950729F32150AC0109F498CF8091EC0053
:1026500080FDE1CF8091E80082FFE1CFB2CF20E89A
:10266000209372032093730310926203109263030A
:102670001092640310926503CD2809F05BC05110DD
:10268000B1C0772009F404C1611012C11092710326
:1026900020E820937003992309F42DCC1091630353
:1026A000B0916403A091650390917003EE24E394CC
:1026B000FE2C9E9D90019F9D300D112430589091CD
:1026C00071036FEF7EEF969FA001979F500D11242D
:1026D00041505048909172039E9DF0019F9DF00DD6
:1026E0001124F05890917303EE24EA946EEFF62EC5
:1026F0009E9DB0019F9D700D11246150704876CE53
:10270000712C34CE0E940A05D3CC772009F4FDC089
:102710005110DCC06110EBC03FEF30937303209386
:10272000720360E070E8E0E8F0E04FE75FEF20E878
:1027300030E0DFCB711045C0611083C1552009F432
:102740009CC13FEF3093700320937103A4CF0E948C
:102750000000B5CC222309F469C0552009F483C1D7
:10276000FF24F394F0924403C9CB8114910409F03F
:1027700053C082E090E0909361038093600372E025
:10278000472E81E090E00E94271C8411D8CD412C77
:10279000DDCD52E05093E9008091E80082FF09C04E
:1027A0008091E80085FDC4C08091E8008B7780931C
:1027B000E80028E0A22EB12C32E4C32E33E0D32E61
:1027C000B5CE552009F45CC02FEF20937103209300
:1027D00070036FE77FEFE0E8F0E040E050E82FEFB4
:1027E0003FE787CB109271032FEF209370036FE7C1
:1027F0007FEFE0E8F0E04FEF5FE72FEF3FE779CBC7
:102800002FEF209372036FEF7FE7EFEFFFE74FE7C4
:102810005FEF20E830E06DCBC114D10409F0ACCDFE
:102820001092610310926003412C82CD711007C099
:10283000662009F43CC196E0909344035FCB552099
:1028400021F093E09093440359CB90E0662021F06F
:1028500095E09093440352CB911104C094E090937F
:1028600044034CCB1092440349CB109272036FEF98
:102870007FE7E0E0F0E84FE75FEF20E830E039CBBA
:10288000611016C03FEF309371032093700303CFA4
:10289000662009F4FBCE10927103109270036FE76B
:1028A0007FEFE0E8F0E04FEF5FE720E030E821CB9A
:1028B0002FEF20937103109270036FE77FEFE0E832
:1028C000F0E040E050E820E030E813CB2FEF209319
:1028D00073032093720360E070E8EFEFFFE74FE7C8
:1028E0005FEF20E830E005CB0E940A0587CE2FEF8E
:1028F000209373031092720360E070E8E0E0F0E868
:102900004FE75FEF20E830E0F4CA61109FC0552028
:1029100009F4C0C03FEF30937203209373036FE755
:102920007FEFEFEFFFE74FE75FEF20E830E0E1CA2E
:102930004091E4005091E50025E68091EC0080FF95
:102940001FC08091E80080FD1FC080915E03882336
:1029500009F42ACF853009F427CF8091EB0085FD5B
:1029600023CF8091E4009091E5008417950729F327
:102970002150AC0109F418CF8091EC0080FDE1CF2B
:102980008091E80082FFE1CF07E010E0E884F9845D
:1029900009C08091F100F70181937F010150110975
:1029A00009F402CF8091E80085FDF3CF8091E80023
:1029B0008B778093E80080915E038823A9F0809153
:1029C000E9008F70D82E8091EC0080FF02C06894DF
:1029D000D7F81092E9008091E80083FD0E940A0573
:1029E0008D2D8F708093E9004091E4005091E500B7
:1029F00025E68091EC0080FF1FC08091E80080FDFB
:102A0000D1CF80915E03882309F4CECE853009F4BE
:102A1000CBCE8091EB0085FDC7CE8091E4009091F4
:102A2000E5008417950729F32150AC0109F4BCCEC9
:102A30008091EC0080FDE1CF8091E80082FFE1CF42
:102A4000B1CF109270032093710325CE10927203C0
:102A5000209373036FE77FEFE0E0F0E84FE75FEF6D
:102A600020E830E046CA91E07110F0CE662009F40B
:102A7000F9CE97E09093440341CA209370032093CA
:102A800071036FE77FEFE0E8F0E04FE75FEF20E8EA
:102A900030E02FCA20937203209373036FE77FEF18
:102AA000E0E8F0E04FE75FEF20E830E022CA552091
:102AB00009F421CA22E02093440320CA10920201A3
:102AC0001A82198260E0CE010196998788870E9458
:102AD000390A0C94460D0BE511E027E9E22E21E0BE
:102AE000F22EF8014181528163817481808190E0EE
:102AF0000E940E030B5F1F4FE016F10691F76AC8A4
:102B000007E911E033EDE32E31E0F32EF8014181C6
:102B1000528163817481808190E00E940E030B5F7B
:102B20001F4FE016F10691F755C803ED11E04FE095
:102B3000E42E42E0F42EF8014181528163817481D8
:102B4000808190E00E940E030B5F1F4FE016F1069C
:102B500091F740C80FE012E0F80141815281638192
:102B60007481808190E00E940E030B5F1F4FF2E0A2
:102B70000B341F0789F70C94EA0D70E060E00C94A9
:102B8000670D0FE111E09BE5E92E91E0F92EF801C8
:102B90004181528163817481808190E00E940E03A3
:102BA0000B5F1F4FE016F10691F70C94EA0D82E0DF
:102BB0000E9416044C0183E00E9416046C0187E019
:102BC0000E9416047C0189E00E9416048C018AE0B0
:102BD0000E9416045C018BE00E9416043C018CE00C
:102BE0000E9416042C018DE00E941604892869F5C4
:102BF000CD2821F5EF2811F5012B01F588E090E0B3
:102C0000909341038093400383E090E09A8389830B
:102C100060914003888599850E94390A84E090E09C
:102C20009A83898360914103888599850E94390A36
:102C30000C94AF0D82E090E00C94920D81E090E056
:102C40009093410380934003DFCFCD2809F046C025
:102C500082E090E09093410380934003D5CF0BE452
:102C600012E057E8E52E52E0F52EF801418152813D
:102C700063817481808190E00E940E030B5F1F4F7F
:102C8000E016F10691F70C94EA0D03EC12E0F8015E
:102C90004181528163817481808190E00E940E03A2
:102CA0000B5F1F4FF2E00F3F1F0789F70C94EA0DEF
:102CB00007E812E063ECE62E62E0F62EF8014181AF
:102CC000528163817481808190E00E940E030B5FCA
:102CD0001F4FE016F10691F70C94EA0DEF2839F436
:102CE00083E090E090934103809340038DCF012BCC
:102CF00039F484E090E0909341038093400384CFC3
:102D0000AB2839F485E090E0909341038093400331
:102D10007BCF672839F486E090E09093410380935D
:102D2000400372CF452839F487E090E09093410347
:102D30008093400369CF892B11F00C94AF0D89E08B
:102D400090E090934103809340035ECF2F923F9297
:102D50004F925F926F927F928F929F92AF92BF92AB
:102D6000CF92DF92EF92FF920F931F93CF93DF9357
:102D700010929203109299031092A0031092A10353
:102D80001092A2031092A30383E080939F0381E03B
:102D900080939C0310929D0392E090939E038093F6
:102DA000910380E390E0909396038093950361E014
:102DB00070E00E94571C90939B0380939A03892B89
:102DC00009F02EC510929603109295031092940369
:102DD0001092930385E090E090939803809397037B
:102DE00080919203811114C5E1EBF2E0E491F0E0EF
:102DF000EE0FFF1FE256FD4F859194919093A5032E
:102E00008093A403E0EDF2E0E491E093A6039AE05E
:102E1000892E80925B0100E010E02FEF30E00093FC
:102E20005C0110935D0120935E0130935F014BE0E4
:102E3000942E9092600140E050E86FEF70E0409374
:102E4000610150936201609363017093640159E0E2
:102E50005093650160E070E88FEF90E06093660149
:102E600070936701809368019093690178E0709393
:102E70006A01412C55245A94652C712C40926B01A7
:102E800050926C0160926D0170926E0110926F0110
:102E9000C12CD12C7601DA94C0927001D0927101CC
:102EA000E0927201F092730187E080937401C09206
:102EB0007501D0927601E0927701F0927801222498
:102EC00023942092790188248A94982CA12CB12CE7
:102ED00080927A0190927B01A0927C01B0927D0158
:102EE000E6E09E2E90927E014FEF5FEF60E070E093
:102EF00040937F0150938001609381017093820120
:102F0000F2E03F2E309283014FEF50E060E070E03E
:102F100040938401509385016093860170938701EB
:102F2000F5E0F09388014093890150938A01609302
:102F30008B0170938C01C4E0C0938D0188248A9426
:102F4000912C540180928E0190928F01A092900159
:102F5000B0929101D3E0D09392018092930190922C
:102F60009401A0929501B092960110921F01809257
:102F7000200190922101A0922201B092230120927F
:102F80002401C0922501D0922601E0922701F092FF
:102F900028013092290100932A0110932B012093DC
:102FA0002C0130932D01D0932E0110922F011092FD
:102FB000300110923101109232018093330140931D
:102FC000340150933501609336017093370186E0E8
:102FD0008093380180E090E8AFEFB0E08093390152
:102FE00090933A01A0933B01B0933C01F0933D01D3
:102FF00010923E0110923F01109240011092410147
:10300000C093420110924301109244011092450175
:103010001092460198E09093470180E090E0A0E094
:10302000BFEF8093480190934901A0934A01B09368
:103030004B01E9E0E0934C0180934D0190934E01E8
:10304000A0934F01B0935001EAE0E09351018093C7
:10305000520190935301A0935401B0935501EBE0BA
:10306000E09356018093570190935801A093590122
:10307000B0935A0110924B0240934C0250934D0270
:1030800060934E0270934F0220925002C092510200
:10309000D0925202E0925302F092540230925502C2
:1030A000009356021093570220935802309359020E
:1030B000D0935A0210925B0210925C0210925D0251
:1030C00010925E02E7E0E0935F02809260029092CD
:1030D0006102A0926202B0926302E6E08E2E8092BC
:1030E00064021092650210926602109267021092BA
:1030F0006802F0936902812CE0E89E2EAA24AA942B
:10310000B12C80926A0290926B02A0926C02B092F3
:103110006D02C0936E0210926F02109270021092B4
:10312000710210927202E8E09E2E909273028093D8
:10313000740290937502A0937602B0937702E9E04F
:10314000AE2EA09278028093790290937A02A09397
:103150007B02B0937C02EAE0BE2EB0927D028093A7
:103160007E0290937F02A0938002B0938102EBE0F5
:10317000E09382028093830290938402A09385025D
:10318000B09386021092D3014092D4015092D5019F
:103190006092D6017092D7012092D801C092D901D5
:1031A000D092DA01E092DB01F092DC013092DD0195
:1031B0004093DE015093DF016093E0017093E101E1
:1031C000D093E2011092E3011092E4011092E50124
:1031D0001092E601E7E08E2E8092E7010093E8016D
:1031E0001093E9012093EA013093EB01E6E09E2E73
:1031F0009092EC011092ED011092EE011092EF010D
:103200001092F001F093F1011092F2011092F3018B
:103210001092F4011092F501C093F6011092F7019B
:103220001092F8011092F9011092FA01E8E0AE2E26
:10323000A092FB018093FC019093FD01A093FE01FD
:10324000B093FF01E9E0BE2EB0920002809301022C
:1032500090930202A0930302B0930402EAE0E09389
:1032600005028093060290930702A0930802B09390
:103270000902EBE08E2E80920A0280930B0290935B
:103280000C02A0930D02B0930E02109297010093CE
:1032900098011093990120939A0130939B012092F9
:1032A0009C01C0929D01D0929E01E0929F01F092FC
:1032B000A0013092A1011092A2011092A3011092DC
:1032C000A4011092A501D093A6011092A70110921B
:1032D000A8011092A9011092AA01E7E09E2E9092F7
:1032E000AB014092AC015092AD016092AE01709280
:1032F000AF01E6E0AE2EA092B0014093B101509331
:10330000B2016093B3017093B401F093B5011092D0
:10331000B6011092B7011092B8011092B901C09392
:10332000BA011092BB011092BC011092BD01109223
:10333000BE01E8E0BE2EB092BF018093C001909321
:10334000C101A093C201B093C301E9E0E093C401BD
:103350008093C5019093C601A093C701B093C801A3
:10336000EAE08E2E8092C9018093CA019093CB012E
:10337000A093CC01B093CD01EBE09E2E9092CE01B4
:103380008093CF019093D001A093D101B093D2014B
:1033900010920F0200931002109311022093120258
:1033A000309313022092140240921502509216029A
:1033B000609217027092180230921902C0921A029B
:1033C000D0921B02E0921C02F0921D02D0931E02CA
:1033D00040931F02509320026093210270932202B7
:1033E000E7E0AE2EA0922302109224021092250252
:1033F0001092260210922702E6E0BE2EB09228021A
:103400001092290210922A0210922B0210922C0282
:10341000F0932D0210922E0210922F021092300281
:1034200010923102C0933202109233021092340291
:103430001092350210923602E8E0E0933702809352
:10344000380290933902A0933A02B0933B02E9E02C
:103450008E2E80923C0280933D0290933E02A09378
:103460003F02B0934002EAE09E2E90924102809388
:10347000420290934302A0934402B0934502EBE0D2
:10348000AE2EA09246028093470290934802A093EA
:103490004902B0934A0210928702409388025093E7
:1034A000890260938A0270938B0220928C02409270
:1034B0008D0250928E0260928F0270929002309232
:1034C00091020093920210939302209394023093FE
:1034D0009502D09396021092970210929802109241
:1034E000990210929A02E7E0BE2EB0929B0240939E
:1034F0009C0250939D0260939E0270939F02E6E0AF
:10350000E093A0024092A1025092A2026092A30214
:103510007092A402F093A5020093A6021093A70252
:103520002093A8023093A902C093AA021092AB0282
:103530001092AC021092AD021092AE0268948824F0
:1035400083F88092AF028093B0029093B102A0936F
:10355000B202B093B3020F2EF9E09F2EF02D90929D
:10356000B4028093B5029093B602A093B702B093D1
:10357000B8020F2EFAE0AF2EF02DA092B902809380
:10358000BA029093BB02A093BC02B093BD020F2E6F
:10359000FBE0BF2EF02DB092BE028093BF0290934D
:1035A000C002A093C102B093C2021092C302C092A3
:1035B000C402D092C502E092C602F092C7022092E5
:1035C000C8024093C9025093CA026093CB02709321
:1035D000CC023092CD02812C912C5401689497F842
:1035E000AA948092CE029092CF02A092D002B09282
:1035F000D102D093D202812C912C5401689487F887
:10360000AA948092D3029092D402A092D502B09252
:10361000D602C093D70288248A94982CA12CB12C6E
:103620008092D8029092D902A092DA02B092DB0284
:10363000F093DC02812C912C54018A946894A7F8B1
:103640008092DD029092DE02A092DF02B092E00250
:10365000E093E1020093E2021093E3022093E4027C
:103660003093E502E7E0E093E6024092E7025092F1
:10367000E8026092E9027092EA02E8E0E093EB026D
:103680008093EC029093ED02A093EE02B093EF02D0
:10369000E9E0E093F0028093F1029093F202A093AC
:1036A000F302B093F402EAE0E093F5028093F602AD
:1036B0009093F702A093F802B093F902EBE0E09345
:1036C000FA028093FB029093FC02A093FD02B09358
:1036D000FE021092FF024093000350930103609397
:1036E0000203709303032092040340920503509257
:1036F000060360920703709208033092090340E0CA
:1037000050E86FEF70E040930A0350930B0360930F
:103710000C0370930D03D0930E0340E850E06FEF5D
:1037200070E040930F035093100360931103709364
:103730001203C09313034FEF5FEF60E070E040931C
:103740001403509315036093160370931703F093BB
:1037500018038092190390921A03A0921B03B0924F
:103760001C0356E050931D0300931E0310931F0388
:10377000209320033093210367E060932203C092DB
:103780002303D0922403E0922503F092260378E0ED
:10379000709327038093280390932903A0932A030F
:1037A000B0932B03E9E0E0932C0380932D039093D7
:1037B0002E03A0932F03B09330032AE0822E809231
:1037C00031038093320390933303A0933403B09377
:1037D00035033BE0932E909236038093370390930A
:1037E0003803A0933903B0933A03DF91CF911F912F
:1037F0000F91FF90EF90DF90CF90BF90AF909F9090
:103800008F907F906F905F904F903F902F90089592
:1038100061E085E00E94420485E00E94EC03E4CA76
:103820008CE090E09093940380939303D3CA8091AB
:103830009A0390919B030E940F1D80919703909192
:10384000980397FD03C060E00C9442040895F99931
:10385000FECF92BD81BDF89A992780B50895262F95
:10386000F999FECF1FBA92BD81BD20BD0FB6F89465
:10387000FA9AF99A0FBE01960895AA1BBB1B51E153
:1038800007C0AA1FBB1FA617B70710F0A61BB70BD0
:10389000881F991F5A95A9F780959095BC01CD0175
:1038A0000895EE0FFF1F0590F491E02D09940F93FA
:1038B0001F93CF93DF93869F8001879F100D969F64
:1038C000100D1124C8010E94731CEC01009729F00F
:1038D000A80170E060E00E94981DCE01DF91CF91B9
:1038E0001F910F9108950F931F93CF93DF93823011
:1038F000910510F482E090E0E091A903F091AA0311
:1039000030E020E0B0E0A0E0309799F421153105D7
:1039100009F44AC0281B390B24303105D8F58A81B7
:103920009B816115710589F1FB0193838283FE01FF
:1039300011C0408151810281138148175907E0F07D
:103940004817590799F4109761F012960C93129743
:1039500013961C933296CF01DF91CF911F910F9157
:1039600008950093A9031093AA03F4CF21153105FC
:1039700051F04217530738F0A901DB019A01BD014C
:10398000DF01F801C1CFEF01F9CF9093AA03809333
:10399000A903CDCFFE01E20FF31F81939193225033
:1039A000310939832883D7CF2091A7033091A80309
:1039B000232B41F420910501309106013093A80397
:1039C0002093A703209103013091040121153105B3
:1039D00041F42DB73EB74091070150910801241BD7
:1039E000350BE091A703F091A803E217F307A0F4C9
:1039F0002E1B3F0B2817390778F0AC014E5F5F4F45
:103A00002417350748F04E0F5F1F5093A8034093CB
:103A1000A703819391939FCFF0E0E0E09CCFCF93F9
:103A2000DF930097E9F0FC01329713821282A09194
:103A3000A903B091AA03ED0130E020E01097A1F4B2
:103A400020813181820F931F2091A7033091A80319
:103A50002817390709F061C0F093A803E093A70382
:103A6000DF91CF910895EA01CE17DF07E8F54A818B
:103A70005B819E0141155105B1F7E901FB83EA83A2
:103A800049915991C40FD51FEC17FD0761F480814E
:103A900091810296840F951FE90199838883828121
:103AA00093819B838A83F0E0E0E012968D919C9154
:103AB00013970097B9F52D913C911197CD0102967E
:103AC000820F931F2091A7033091A803281739076D
:103AD00039F6309751F51092AA031092A903B093CA
:103AE000A803A093A703BCCFD383C2834081518195
:103AF000840F951FC817D90761F44E5F5F4F888107
:103B00009981480F591F518340838A819B819383F8
:103B100082832115310509F0B0CFF093AA03E09319
:103B2000A9039ECFFD01DC01C0CF13821282D7CF43
:103B3000DC0101C06D9341505040E0F7089511E061
:103B4000C6E8D1E004C0FE010E94511C2196C7388E
:083B5000D107C9F7F894FFCF7B
:103B58000D01010000AB038000000000007F04732A
:023B6800040057
:00000001FF
